{
  "contractName": "NFTMarketPlace",
  "abi": [
    {
      "inputs": [
        {
          "internalType": "address",
          "name": "tokenAddress",
          "type": "address"
        },
        {
          "internalType": "address",
          "name": "NFTAddress",
          "type": "address"
        }
      ],
      "stateMutability": "nonpayable",
      "type": "constructor"
    },
    {
      "inputs": [
        {
          "internalType": "uint256",
          "name": "",
          "type": "uint256"
        }
      ],
      "name": "nftBuyers",
      "outputs": [
        {
          "internalType": "address",
          "name": "",
          "type": "address"
        }
      ],
      "stateMutability": "view",
      "type": "function",
      "constant": true
    },
    {
      "inputs": [
        {
          "internalType": "uint256",
          "name": "",
          "type": "uint256"
        }
      ],
      "name": "tokenIdForSale",
      "outputs": [
        {
          "internalType": "bool",
          "name": "",
          "type": "bool"
        }
      ],
      "stateMutability": "view",
      "type": "function",
      "constant": true
    },
    {
      "inputs": [
        {
          "internalType": "uint256",
          "name": "_tokenId",
          "type": "uint256"
        },
        {
          "internalType": "bool",
          "name": "forSale",
          "type": "bool"
        }
      ],
      "name": "nftSale",
      "outputs": [],
      "stateMutability": "nonpayable",
      "type": "function"
    },
    {
      "inputs": [
        {
          "internalType": "uint256",
          "name": "_tokenId",
          "type": "uint256"
        }
      ],
      "name": "nftBuy",
      "outputs": [],
      "stateMutability": "nonpayable",
      "type": "function"
    }
  ],
  "bytecode": "0x608060405234801561001057600080fd5b50604051610d4e380380610d4e833981810160405281019061003291906100cf565b816000806101000a81548173ffffffffffffffffffffffffffffffffffffffff021916908373ffffffffffffffffffffffffffffffffffffffff16021790555080600160006101000a81548173ffffffffffffffffffffffffffffffffffffffff021916908373ffffffffffffffffffffffffffffffffffffffff1602179055505050610154565b6000815190506100c98161013d565b92915050565b600080604083850312156100e257600080fd5b60006100f0858286016100ba565b9250506020610101858286016100ba565b9150509250929050565b60006101168261011d565b9050919050565b600073ffffffffffffffffffffffffffffffffffffffff82169050919050565b6101468161010b565b811461015157600080fd5b50565b610beb806101636000396000f3fe608060405234801561001057600080fd5b506004361061004c5760003560e01c8063192980a0146100515780632aa6152e1461006d5780635b76b2341461009d578063709a20d8146100cd575b600080fd5b61006b60048036038101906100669190610827565b6100e9565b005b610087600480360381019061008291906107d5565b610230565b604051610094919061091c565b60405180910390f35b6100b760048036038101906100b291906107d5565b610263565b6040516100c49190610997565b60405180910390f35b6100e760048036038101906100e291906107d5565b610283565b005b600160009054906101000a900473ffffffffffffffffffffffffffffffffffffffff1673ffffffffffffffffffffffffffffffffffffffff16636352211e836040518263ffffffff1660e01b81526004016101449190610a32565b60206040518083038186803b15801561015c57600080fd5b505afa158015610170573d6000803e3d6000fd5b505050506040513d601f19601f820116820180604052508101906101949190610783565b73ffffffffffffffffffffffffffffffffffffffff163373ffffffffffffffffffffffffffffffffffffffff1614610201576040517f08c379a00000000000000000000000000000000000000000000000000000000081526004016101f8906109b2565b60405180910390fd5b806002600084815260200190815260200160002060006101000a81548160ff0219169083151502179055505050565b60036020528060005260406000206000915054906101000a900473ffffffffffffffffffffffffffffffffffffffff1681565b60026020528060005260406000206000915054906101000a900460ff1681565b6002600082815260200190815260200160002060009054906101000a900460ff166102e3576040517f08c379a00000000000000000000000000000000000000000000000000000000081526004016102da90610a12565b60405180910390fd5b6000600160009054906101000a900473ffffffffffffffffffffffffffffffffffffffff1673ffffffffffffffffffffffffffffffffffffffff1663d4ddce8a836040518263ffffffff1660e01b81526004016103409190610a32565b60206040518083038186803b15801561035857600080fd5b505afa15801561036c573d6000803e3d6000fd5b505050506040513d601f19601f8201168201806040525081019061039091906107fe565b90508060008054906101000a900473ffffffffffffffffffffffffffffffffffffffff1673ffffffffffffffffffffffffffffffffffffffff1663dd62ed3e33306040518363ffffffff1660e01b81526004016103ee929190610937565b60206040518083038186803b15801561040657600080fd5b505afa15801561041a573d6000803e3d6000fd5b505050506040513d601f19601f8201168201806040525081019061043e91906107fe565b101561047f576040517f08c379a0000000000000000000000000000000000000000000000000000000008152600401610476906109f2565b60405180910390fd5b8060008054906101000a900473ffffffffffffffffffffffffffffffffffffffff1673ffffffffffffffffffffffffffffffffffffffff166370a08231336040518263ffffffff1660e01b81526004016104d9919061091c565b60206040518083038186803b1580156104f157600080fd5b505afa158015610505573d6000803e3d6000fd5b505050506040513d601f19601f8201168201806040525081019061052991906107fe565b101561056a576040517f08c379a0000000000000000000000000000000000000000000000000000000008152600401610561906109d2565b60405180910390fd5b60008054906101000a900473ffffffffffffffffffffffffffffffffffffffff1673ffffffffffffffffffffffffffffffffffffffff166323b872dd33600160009054906101000a900473ffffffffffffffffffffffffffffffffffffffff1673ffffffffffffffffffffffffffffffffffffffff16636352211e866040518263ffffffff1660e01b81526004016106029190610a32565b60206040518083038186803b15801561061a57600080fd5b505afa15801561062e573d6000803e3d6000fd5b505050506040513d601f19601f820116820180604052508101906106529190610783565b846040518463ffffffff1660e01b815260040161067193929190610960565b602060405180830381600087803b15801561068b57600080fd5b505af115801561069f573d6000803e3d6000fd5b505050506040513d601f19601f820116820180604052508101906106c391906107ac565b50336003600084815260200190815260200160002060006101000a81548173ffffffffffffffffffffffffffffffffffffffff021916908373ffffffffffffffffffffffffffffffffffffffff1602179055505050565b60008151905061072981610b70565b92915050565b60008135905061073e81610b87565b92915050565b60008151905061075381610b87565b92915050565b60008135905061076881610b9e565b92915050565b60008151905061077d81610b9e565b92915050565b60006020828403121561079557600080fd5b60006107a38482850161071a565b91505092915050565b6000602082840312156107be57600080fd5b60006107cc84828501610744565b91505092915050565b6000602082840312156107e757600080fd5b60006107f584828501610759565b91505092915050565b60006020828403121561081057600080fd5b600061081e8482850161076e565b91505092915050565b6000806040838503121561083a57600080fd5b600061084885828601610759565b92505060206108598582860161072f565b9150509250929050565b61086c81610a5e565b82525050565b61087b81610a70565b82525050565b600061088e602283610a4d565b915061089982610aa6565b604082019050919050565b60006108b1601583610a4d565b91506108bc82610af5565b602082019050919050565b60006108d4601783610a4d565b91506108df82610b1e565b602082019050919050565b60006108f7601b83610a4d565b915061090282610b47565b602082019050919050565b61091681610a9c565b82525050565b60006020820190506109316000830184610863565b92915050565b600060408201905061094c6000830185610863565b6109596020830184610863565b9392505050565b60006060820190506109756000830186610863565b6109826020830185610863565b61098f604083018461090d565b949350505050565b60006020820190506109ac6000830184610872565b92915050565b600060208201905081810360008301526109cb81610881565b9050919050565b600060208201905081810360008301526109eb816108a4565b9050919050565b60006020820190508181036000830152610a0b816108c7565b9050919050565b60006020820190508181036000830152610a2b816108ea565b9050919050565b6000602082019050610a47600083018461090d565b92915050565b600082825260208201905092915050565b6000610a6982610a7c565b9050919050565b60008115159050919050565b600073ffffffffffffffffffffffffffffffffffffffff82169050919050565b6000819050919050565b7f4f6e6c79206f776e6572732063616e206368616e67652074686973207374617460008201527f7573000000000000000000000000000000000000000000000000000000000000602082015250565b7f496e73756666696369656e742062616c616e63652e0000000000000000000000600082015250565b7f496e73756666696369656e7420616c6c6f77616e63652e000000000000000000600082015250565b7f546f6b656e206d757374206265206f6e2073616c652066697273740000000000600082015250565b610b7981610a5e565b8114610b8457600080fd5b50565b610b9081610a70565b8114610b9b57600080fd5b50565b610ba781610a9c565b8114610bb257600080fd5b5056fea2646970667358221220c3b1d73c9627519c21b544c3404a731d4bcf619ecc2fe960428d641469d8b0aa64736f6c63430008040033",
  "immutableReferences": {},
  "source": "pragma solidity ^0.8.0;\r\n\r\n\r\n\r\nimport \"./NFT.sol\";\r\nimport \"./Token.sol\";\r\n\r\n\r\ncontract NFTMarketPlace {\r\n    \r\n    YourToken token;\r\n    NFTToken  NFT;\r\n   \r\n    \r\n   \r\n  \r\n    //keep the record for tokenID is listed on sale or not\r\n    mapping(uint256 => bool) public tokenIdForSale;\r\n    \r\n    \r\n    \r\n    //keep the address of the nft buyer\r\n    mapping(uint256 => address) public nftBuyers;\r\n    \r\n    \r\n    constructor (address tokenAddress, address NFTAddress)  {\r\n        token = YourToken(tokenAddress);\r\n        NFT = NFTToken(NFTAddress);\r\n       \r\n    \r\n    }\r\n    \r\n    function nftSale(uint256 _tokenId,bool forSale) external {\r\n        require(msg.sender == NFT.ownerOf(_tokenId),\"Only owners can change this status\");\r\n        tokenIdForSale[_tokenId] = forSale;\r\n    }\r\n    \r\n   \r\n    function nftBuy(uint256 _tokenId) public {\r\n        require(tokenIdForSale[_tokenId],\"Token must be on sale first\");\r\n        // uint nftPrice = NFT.tokenIdToValue(_tokenId);\r\n        \r\n        \r\n        uint nftPrice = NFT.tokenPrice(_tokenId);\r\n        // require(msg.value >= nftPrice, \"Insufficient balance.\");\r\n        \r\n        require(token.allowance(msg.sender, address(this)) >= nftPrice, \"Insufficient allowance.\");\r\n        require(token.balanceOf(msg.sender) >= nftPrice, \"Insufficient balance.\");\r\n        token.transferFrom(msg.sender, NFT.ownerOf(_tokenId), nftPrice);\r\n        \r\n        // token.transfer(payable(NFT.ownerOf(_tokenId)),nftPrice);\r\n        // payable(msg.sender).transfer(nftPrice);\r\n        \r\n        nftBuyers[_tokenId] = msg.sender;\r\n        \r\n    }\r\n    \r\n\r\n}",
  "sourcePath": "S:\\TokenNFT\\contracts\\NFTMarketPlace.sol",
  "compiler": {
    "name": "solc",
    "version": "0.8.4+commit.c7e474f2.Emscripten.clang"
  },
  "schemaVersion": "3.4.3",
  "updatedAt": "2021-11-07T14:26:14.916Z",
  "networkType": "ethereum",
  "devdoc": {
    "kind": "dev",
    "methods": {},
    "version": 1
  },
  "userdoc": {
    "kind": "user",
    "methods": {},
    "version": 1
  }
}