{
  "contractName": "NFTToken",
  "abi": [
    {
      "inputs": [],
      "stateMutability": "nonpayable",
      "type": "constructor"
    },
    {
      "anonymous": false,
      "inputs": [
        {
          "indexed": true,
          "internalType": "address",
          "name": "owner",
          "type": "address"
        },
        {
          "indexed": true,
          "internalType": "address",
          "name": "approved",
          "type": "address"
        },
        {
          "indexed": true,
          "internalType": "uint256",
          "name": "tokenId",
          "type": "uint256"
        }
      ],
      "name": "Approval",
      "type": "event"
    },
    {
      "anonymous": false,
      "inputs": [
        {
          "indexed": true,
          "internalType": "address",
          "name": "owner",
          "type": "address"
        },
        {
          "indexed": true,
          "internalType": "address",
          "name": "operator",
          "type": "address"
        },
        {
          "indexed": false,
          "internalType": "bool",
          "name": "approved",
          "type": "bool"
        }
      ],
      "name": "ApprovalForAll",
      "type": "event"
    },
    {
      "anonymous": false,
      "inputs": [
        {
          "indexed": true,
          "internalType": "address",
          "name": "from",
          "type": "address"
        },
        {
          "indexed": true,
          "internalType": "address",
          "name": "to",
          "type": "address"
        },
        {
          "indexed": true,
          "internalType": "uint256",
          "name": "tokenId",
          "type": "uint256"
        }
      ],
      "name": "Transfer",
      "type": "event"
    },
    {
      "inputs": [
        {
          "internalType": "address",
          "name": "to",
          "type": "address"
        },
        {
          "internalType": "uint256",
          "name": "tokenId",
          "type": "uint256"
        }
      ],
      "name": "approve",
      "outputs": [],
      "stateMutability": "nonpayable",
      "type": "function"
    },
    {
      "inputs": [
        {
          "internalType": "address",
          "name": "owner",
          "type": "address"
        }
      ],
      "name": "balanceOf",
      "outputs": [
        {
          "internalType": "uint256",
          "name": "",
          "type": "uint256"
        }
      ],
      "stateMutability": "view",
      "type": "function"
    },
    {
      "inputs": [
        {
          "internalType": "uint256",
          "name": "tokenId",
          "type": "uint256"
        }
      ],
      "name": "getApproved",
      "outputs": [
        {
          "internalType": "address",
          "name": "",
          "type": "address"
        }
      ],
      "stateMutability": "view",
      "type": "function"
    },
    {
      "inputs": [
        {
          "internalType": "address",
          "name": "owner",
          "type": "address"
        },
        {
          "internalType": "address",
          "name": "operator",
          "type": "address"
        }
      ],
      "name": "isApprovedForAll",
      "outputs": [
        {
          "internalType": "bool",
          "name": "",
          "type": "bool"
        }
      ],
      "stateMutability": "view",
      "type": "function"
    },
    {
      "inputs": [],
      "name": "name",
      "outputs": [
        {
          "internalType": "string",
          "name": "",
          "type": "string"
        }
      ],
      "stateMutability": "view",
      "type": "function"
    },
    {
      "inputs": [],
      "name": "nameNFT",
      "outputs": [
        {
          "internalType": "string",
          "name": "",
          "type": "string"
        }
      ],
      "stateMutability": "view",
      "type": "function"
    },
    {
      "inputs": [],
      "name": "nameSymbol",
      "outputs": [
        {
          "internalType": "string",
          "name": "",
          "type": "string"
        }
      ],
      "stateMutability": "view",
      "type": "function"
    },
    {
      "inputs": [],
      "name": "nftId",
      "outputs": [
        {
          "internalType": "uint256",
          "name": "",
          "type": "uint256"
        }
      ],
      "stateMutability": "view",
      "type": "function"
    },
    {
      "inputs": [],
      "name": "nftTokenURI",
      "outputs": [
        {
          "internalType": "string",
          "name": "",
          "type": "string"
        }
      ],
      "stateMutability": "view",
      "type": "function"
    },
    {
      "inputs": [
        {
          "internalType": "uint256",
          "name": "tokenId",
          "type": "uint256"
        }
      ],
      "name": "ownerOf",
      "outputs": [
        {
          "internalType": "address",
          "name": "",
          "type": "address"
        }
      ],
      "stateMutability": "view",
      "type": "function"
    },
    {
      "inputs": [
        {
          "internalType": "address",
          "name": "from",
          "type": "address"
        },
        {
          "internalType": "address",
          "name": "to",
          "type": "address"
        },
        {
          "internalType": "uint256",
          "name": "tokenId",
          "type": "uint256"
        }
      ],
      "name": "safeTransferFrom",
      "outputs": [],
      "stateMutability": "nonpayable",
      "type": "function"
    },
    {
      "inputs": [
        {
          "internalType": "address",
          "name": "from",
          "type": "address"
        },
        {
          "internalType": "address",
          "name": "to",
          "type": "address"
        },
        {
          "internalType": "uint256",
          "name": "tokenId",
          "type": "uint256"
        },
        {
          "internalType": "bytes",
          "name": "_data",
          "type": "bytes"
        }
      ],
      "name": "safeTransferFrom",
      "outputs": [],
      "stateMutability": "nonpayable",
      "type": "function"
    },
    {
      "inputs": [
        {
          "internalType": "address",
          "name": "operator",
          "type": "address"
        },
        {
          "internalType": "bool",
          "name": "approved",
          "type": "bool"
        }
      ],
      "name": "setApprovalForAll",
      "outputs": [],
      "stateMutability": "nonpayable",
      "type": "function"
    },
    {
      "inputs": [
        {
          "internalType": "bytes4",
          "name": "interfaceId",
          "type": "bytes4"
        }
      ],
      "name": "supportsInterface",
      "outputs": [
        {
          "internalType": "bool",
          "name": "",
          "type": "bool"
        }
      ],
      "stateMutability": "view",
      "type": "function"
    },
    {
      "inputs": [],
      "name": "symbol",
      "outputs": [
        {
          "internalType": "string",
          "name": "",
          "type": "string"
        }
      ],
      "stateMutability": "view",
      "type": "function"
    },
    {
      "inputs": [
        {
          "internalType": "uint256",
          "name": "",
          "type": "uint256"
        }
      ],
      "name": "tokenIdToValue",
      "outputs": [
        {
          "internalType": "uint256",
          "name": "",
          "type": "uint256"
        }
      ],
      "stateMutability": "view",
      "type": "function"
    },
    {
      "inputs": [
        {
          "internalType": "uint256",
          "name": "",
          "type": "uint256"
        }
      ],
      "name": "tokenURIExists",
      "outputs": [
        {
          "internalType": "string",
          "name": "",
          "type": "string"
        }
      ],
      "stateMutability": "view",
      "type": "function"
    },
    {
      "inputs": [
        {
          "internalType": "address",
          "name": "from",
          "type": "address"
        },
        {
          "internalType": "address",
          "name": "to",
          "type": "address"
        },
        {
          "internalType": "uint256",
          "name": "tokenId",
          "type": "uint256"
        }
      ],
      "name": "transferFrom",
      "outputs": [],
      "stateMutability": "nonpayable",
      "type": "function"
    },
    {
      "inputs": [
        {
          "internalType": "string",
          "name": "baseURI_",
          "type": "string"
        }
      ],
      "name": "setBaseURI",
      "outputs": [],
      "stateMutability": "nonpayable",
      "type": "function"
    },
    {
      "inputs": [
        {
          "internalType": "uint256",
          "name": "tokenId",
          "type": "uint256"
        }
      ],
      "name": "tokenURI",
      "outputs": [
        {
          "internalType": "string",
          "name": "",
          "type": "string"
        }
      ],
      "stateMutability": "view",
      "type": "function"
    },
    {
      "inputs": [
        {
          "internalType": "string",
          "name": "_tokenURI",
          "type": "string"
        },
        {
          "internalType": "uint256",
          "name": "_nftPrice",
          "type": "uint256"
        }
      ],
      "name": "Mint",
      "outputs": [
        {
          "internalType": "uint256",
          "name": "",
          "type": "uint256"
        }
      ],
      "stateMutability": "nonpayable",
      "type": "function"
    },
    {
      "inputs": [
        {
          "internalType": "uint256",
          "name": "_tokenID",
          "type": "uint256"
        }
      ],
      "name": "tokenPrice",
      "outputs": [
        {
          "internalType": "uint256",
          "name": "nftPrice",
          "type": "uint256"
        }
      ],
      "stateMutability": "view",
      "type": "function"
    }
  ],
  "bytecode": "0x60806040523480156200001157600080fd5b506040518060400160405280600781526020017f53616d72657368000000000000000000000000000000000000000000000000008152506040518060400160405280600381526020017f53414d000000000000000000000000000000000000000000000000000000000081525081600090805190602001906200009692919062000154565b508060019080519060200190620000af92919062000154565b5050506040518060400160405280600781526020017f53616d726573680000000000000000000000000000000000000000000000000081525060069080519060200190620000ff92919062000154565b506040518060400160405280600381526020017f53414d0000000000000000000000000000000000000000000000000000000000815250600790805190602001906200014d92919062000154565b5062000269565b828054620001629062000204565b90600052602060002090601f016020900481019282620001865760008555620001d2565b82601f10620001a157805160ff1916838001178555620001d2565b82800160010185558215620001d2579182015b82811115620001d1578251825591602001919060010190620001b4565b5b509050620001e19190620001e5565b5090565b5b8082111562000200576000816000905550600101620001e6565b5090565b600060028204905060018216806200021d57607f821691505b602082108114156200023457620002336200023a565b5b50919050565b7f4e487b7100000000000000000000000000000000000000000000000000000000600052602260045260246000fd5b612ece80620002796000396000f3fe608060405234801561001057600080fd5b50600436106101425760003560e01c80636352211e116100b8578063ba84a4c41161007c578063ba84a4c414610387578063c6bc5182146103b7578063c87b56dd146103d5578063c9ba55ff14610405578063d4ddce8a14610423578063e985e9c51461045357610142565b80636352211e146102d157806370a082311461030157806395d89b4114610331578063a22cb4651461034f578063b88d4fde1461036b57610142565b806323b872dd1161010a57806323b872dd1461021157806334c3d3001461022d5780633ae4c4651461025d57806342842e0e1461027b5780634560dab91461029757806355f804b3146102b557610142565b806301ffc9a71461014757806306fdde0314610177578063081812fc14610195578063095ea7b3146101c55780630a4e1e50146101e1575b600080fd5b610161600480360381019061015c9190611f54565b610483565b60405161016e919061242e565b60405180910390f35b61017f610565565b60405161018c9190612449565b60405180910390f35b6101af60048036038101906101aa919061203b565b6105f7565b6040516101bc91906123c7565b60405180910390f35b6101df60048036038101906101da9190611f18565b61067c565b005b6101fb60048036038101906101f69190611fe7565b610794565b604051610208919061266b565b60405180910390f35b61022b60048036038101906102269190611e12565b6108da565b005b6102476004803603810190610242919061203b565b61093a565b6040516102549190612449565b60405180910390f35b6102656109da565b6040516102729190612449565b60405180910390f35b61029560048036038101906102909190611e12565b610a68565b005b61029f610a88565b6040516102ac9190612449565b60405180910390f35b6102cf60048036038101906102ca9190611fa6565b610b16565b005b6102eb60048036038101906102e6919061203b565b610b30565b6040516102f891906123c7565b60405180910390f35b61031b60048036038101906103169190611dad565b610be2565b604051610328919061266b565b60405180910390f35b610339610c9a565b6040516103469190612449565b60405180910390f35b61036960048036038101906103649190611edc565b610d2c565b005b61038560048036038101906103809190611e61565b610ead565b005b6103a1600480360381019061039c919061203b565b610f0f565b6040516103ae919061266b565b60405180910390f35b6103bf610f27565b6040516103cc919061266b565b60405180910390f35b6103ef60048036038101906103ea919061203b565b610f2d565b6040516103fc9190612449565b60405180910390f35b61040d611098565b60405161041a9190612449565b60405180910390f35b61043d6004803603810190610438919061203b565b611126565b60405161044a919061266b565b60405180910390f35b61046d60048036038101906104689190611dd6565b61118d565b60405161047a919061242e565b60405180910390f35b60007f80ac58cd000000000000000000000000000000000000000000000000000000007bffffffffffffffffffffffffffffffffffffffffffffffffffffffff1916827bffffffffffffffffffffffffffffffffffffffffffffffffffffffff1916148061054e57507f5b5e139f000000000000000000000000000000000000000000000000000000007bffffffffffffffffffffffffffffffffffffffffffffffffffffffff1916827bffffffffffffffffffffffffffffffffffffffffffffffffffffffff1916145b8061055e575061055d82611221565b5b9050919050565b60606000805461057490612890565b80601f01602080910402602001604051908101604052809291908181526020018280546105a090612890565b80156105ed5780601f106105c2576101008083540402835291602001916105ed565b820191906000526020600020905b8154815290600101906020018083116105d057829003601f168201915b5050505050905090565b60006106028261128b565b610641576040517f08c379a00000000000000000000000000000000000000000000000000000000081526004016106389061258b565b60405180910390fd5b6004600083815260200190815260200160002060009054906101000a900473ffffffffffffffffffffffffffffffffffffffff169050919050565b600061068782610b30565b90508073ffffffffffffffffffffffffffffffffffffffff168373ffffffffffffffffffffffffffffffffffffffff1614156106f8576040517f08c379a00000000000000000000000000000000000000000000000000000000081526004016106ef9061260b565b60405180910390fd5b8073ffffffffffffffffffffffffffffffffffffffff166107176112f7565b73ffffffffffffffffffffffffffffffffffffffff1614806107465750610745816107406112f7565b61118d565b5b610785576040517f08c379a000000000000000000000000000000000000000000000000000000000815260040161077c9061250b565b60405180910390fd5b61078f83836112ff565b505050565b60008073ffffffffffffffffffffffffffffffffffffffff163373ffffffffffffffffffffffffffffffffffffffff1614156107cf57600080fd5b82600890805190602001906107e5929190611bd1565b50600960008154809291906107f9906128f3565b919050555061080960095461128b565b1561081357600080fd5b81600b6000600954815260200190815260200160002081905550610839336009546113b8565b6108cf6009546008805461084c90612890565b80601f016020809104026020016040519081016040528092919081815260200182805461087890612890565b80156108c55780601f1061089a576101008083540402835291602001916108c5565b820191906000526020600020905b8154815290600101906020018083116108a857829003601f168201915b5050505050611586565b600954905092915050565b6108eb6108e56112f7565b826115fa565b61092a576040517f08c379a00000000000000000000000000000000000000000000000000000000081526004016109219061264b565b60405180910390fd5b6109358383836116d8565b505050565b600a602052806000526040600020600091509050805461095990612890565b80601f016020809104026020016040519081016040528092919081815260200182805461098590612890565b80156109d25780601f106109a7576101008083540402835291602001916109d2565b820191906000526020600020905b8154815290600101906020018083116109b557829003601f168201915b505050505081565b600780546109e790612890565b80601f0160208091040260200160405190810160405280929190818152602001828054610a1390612890565b8015610a605780601f10610a3557610100808354040283529160200191610a60565b820191906000526020600020905b815481529060010190602001808311610a4357829003601f168201915b505050505081565b610a8383838360405180602001604052806000815250610ead565b505050565b60088054610a9590612890565b80601f0160208091040260200160405190810160405280929190818152602001828054610ac190612890565b8015610b0e5780601f10610ae357610100808354040283529160200191610b0e565b820191906000526020600020905b815481529060010190602001808311610af157829003601f168201915b505050505081565b80600c9080519060200190610b2c929190611bd1565b5050565b6000806002600084815260200190815260200160002060009054906101000a900473ffffffffffffffffffffffffffffffffffffffff169050600073ffffffffffffffffffffffffffffffffffffffff168173ffffffffffffffffffffffffffffffffffffffff161415610bd9576040517f08c379a0000000000000000000000000000000000000000000000000000000008152600401610bd09061254b565b60405180910390fd5b80915050919050565b60008073ffffffffffffffffffffffffffffffffffffffff168273ffffffffffffffffffffffffffffffffffffffff161415610c53576040517f08c379a0000000000000000000000000000000000000000000000000000000008152600401610c4a9061252b565b60405180910390fd5b600360008373ffffffffffffffffffffffffffffffffffffffff1673ffffffffffffffffffffffffffffffffffffffff168152602001908152602001600020549050919050565b606060018054610ca990612890565b80601f0160208091040260200160405190810160405280929190818152602001828054610cd590612890565b8015610d225780601f10610cf757610100808354040283529160200191610d22565b820191906000526020600020905b815481529060010190602001808311610d0557829003601f168201915b5050505050905090565b610d346112f7565b73ffffffffffffffffffffffffffffffffffffffff168273ffffffffffffffffffffffffffffffffffffffff161415610da2576040517f08c379a0000000000000000000000000000000000000000000000000000000008152600401610d99906124cb565b60405180910390fd5b8060056000610daf6112f7565b73ffffffffffffffffffffffffffffffffffffffff1673ffffffffffffffffffffffffffffffffffffffff16815260200190815260200160002060008473ffffffffffffffffffffffffffffffffffffffff1673ffffffffffffffffffffffffffffffffffffffff16815260200190815260200160002060006101000a81548160ff0219169083151502179055508173ffffffffffffffffffffffffffffffffffffffff16610e5c6112f7565b73ffffffffffffffffffffffffffffffffffffffff167f17307eab39ab6107e8899845ad3d59bd9653f200f220920489ca2b5937696c3183604051610ea1919061242e565b60405180910390a35050565b610ebe610eb86112f7565b836115fa565b610efd576040517f08c379a0000000000000000000000000000000000000000000000000000000008152600401610ef49061264b565b60405180910390fd5b610f0984848484611934565b50505050565b600b6020528060005260406000206000915090505481565b60095481565b6060610f388261128b565b610f77576040517f08c379a0000000000000000000000000000000000000000000000000000000008152600401610f6e906125eb565b60405180910390fd5b6000600a60008481526020019081526020016000208054610f9790612890565b80601f0160208091040260200160405190810160405280929190818152602001828054610fc390612890565b80156110105780601f10610fe557610100808354040283529160200191611010565b820191906000526020600020905b815481529060010190602001808311610ff357829003601f168201915b505050505090506000611021611990565b9050600081511415611037578192505050611093565b60008251111561106c57808260405160200161105492919061237b565b60405160208183030381529060405292505050611093565b808460405160200161107f92919061239f565b604051602081830303815290604052925050505b919050565b600680546110a590612890565b80601f01602080910402602001604051908101604052809291908181526020018280546110d190612890565b801561111e5780601f106110f35761010080835404028352916020019161111e565b820191906000526020600020905b81548152906001019060200180831161110157829003601f168201915b505050505081565b600061113360095461128b565b611172576040517f08c379a00000000000000000000000000000000000000000000000000000000081526004016111699061262b565b60405180910390fd5b600b6000838152602001908152602001600020549050919050565b6000600560008473ffffffffffffffffffffffffffffffffffffffff1673ffffffffffffffffffffffffffffffffffffffff16815260200190815260200160002060008373ffffffffffffffffffffffffffffffffffffffff1673ffffffffffffffffffffffffffffffffffffffff16815260200190815260200160002060009054906101000a900460ff16905092915050565b60007f01ffc9a7000000000000000000000000000000000000000000000000000000007bffffffffffffffffffffffffffffffffffffffffffffffffffffffff1916827bffffffffffffffffffffffffffffffffffffffffffffffffffffffff1916149050919050565b60008073ffffffffffffffffffffffffffffffffffffffff166002600084815260200190815260200160002060009054906101000a900473ffffffffffffffffffffffffffffffffffffffff1673ffffffffffffffffffffffffffffffffffffffff1614159050919050565b600033905090565b816004600083815260200190815260200160002060006101000a81548173ffffffffffffffffffffffffffffffffffffffff021916908373ffffffffffffffffffffffffffffffffffffffff160217905550808273ffffffffffffffffffffffffffffffffffffffff1661137283610b30565b73ffffffffffffffffffffffffffffffffffffffff167f8c5be1e5ebec7d5bd14f71427d1e84f3dd0314c0f7b2291e5b200ac8c7c3b92560405160405180910390a45050565b600073ffffffffffffffffffffffffffffffffffffffff168273ffffffffffffffffffffffffffffffffffffffff161415611428576040517f08c379a000000000000000000000000000000000000000000000000000000000815260040161141f9061256b565b60405180910390fd5b6114318161128b565b15611471576040517f08c379a00000000000000000000000000000000000000000000000000000000081526004016114689061248b565b60405180910390fd5b61147d60008383611a22565b6001600360008473ffffffffffffffffffffffffffffffffffffffff1673ffffffffffffffffffffffffffffffffffffffff16815260200190815260200160002060008282546114cd9190612750565b92505081905550816002600083815260200190815260200160002060006101000a81548173ffffffffffffffffffffffffffffffffffffffff021916908373ffffffffffffffffffffffffffffffffffffffff160217905550808273ffffffffffffffffffffffffffffffffffffffff16600073ffffffffffffffffffffffffffffffffffffffff167fddf252ad1be2c89b69c2b068fc378daa952ba7f163c4a11628f55a4df523b3ef60405160405180910390a45050565b61158f8261128b565b6115ce576040517f08c379a00000000000000000000000000000000000000000000000000000000081526004016115c5906125ab565b60405180910390fd5b80600a600084815260200190815260200160002090805190602001906115f5929190611bd1565b505050565b60006116058261128b565b611644576040517f08c379a000000000000000000000000000000000000000000000000000000000815260040161163b906124eb565b60405180910390fd5b600061164f83610b30565b90508073ffffffffffffffffffffffffffffffffffffffff168473ffffffffffffffffffffffffffffffffffffffff1614806116be57508373ffffffffffffffffffffffffffffffffffffffff166116a6846105f7565b73ffffffffffffffffffffffffffffffffffffffff16145b806116cf57506116ce818561118d565b5b91505092915050565b8273ffffffffffffffffffffffffffffffffffffffff166116f882610b30565b73ffffffffffffffffffffffffffffffffffffffff161461174e576040517f08c379a0000000000000000000000000000000000000000000000000000000008152600401611745906125cb565b60405180910390fd5b600073ffffffffffffffffffffffffffffffffffffffff168273ffffffffffffffffffffffffffffffffffffffff1614156117be576040517f08c379a00000000000000000000000000000000000000000000000000000000081526004016117b5906124ab565b60405180910390fd5b6117c9838383611a22565b6117d46000826112ff565b6001600360008573ffffffffffffffffffffffffffffffffffffffff1673ffffffffffffffffffffffffffffffffffffffff168152602001908152602001600020600082825461182491906127a6565b925050819055506001600360008473ffffffffffffffffffffffffffffffffffffffff1673ffffffffffffffffffffffffffffffffffffffff168152602001908152602001600020600082825461187b9190612750565b92505081905550816002600083815260200190815260200160002060006101000a81548173ffffffffffffffffffffffffffffffffffffffff021916908373ffffffffffffffffffffffffffffffffffffffff160217905550808273ffffffffffffffffffffffffffffffffffffffff168473ffffffffffffffffffffffffffffffffffffffff167fddf252ad1be2c89b69c2b068fc378daa952ba7f163c4a11628f55a4df523b3ef60405160405180910390a4505050565b61193f8484846116d8565b61194b84848484611a27565b61198a576040517f08c379a00000000000000000000000000000000000000000000000000000000081526004016119819061246b565b60405180910390fd5b50505050565b6060600c805461199f90612890565b80601f01602080910402602001604051908101604052809291908181526020018280546119cb90612890565b8015611a185780601f106119ed57610100808354040283529160200191611a18565b820191906000526020600020905b8154815290600101906020018083116119fb57829003601f168201915b5050505050905090565b505050565b6000611a488473ffffffffffffffffffffffffffffffffffffffff16611bbe565b15611bb1578373ffffffffffffffffffffffffffffffffffffffff1663150b7a02611a716112f7565b8786866040518563ffffffff1660e01b8152600401611a9394939291906123e2565b602060405180830381600087803b158015611aad57600080fd5b505af1925050508015611ade57506040513d601f19601f82011682018060405250810190611adb9190611f7d565b60015b611b61573d8060008114611b0e576040519150601f19603f3d011682016040523d82523d6000602084013e611b13565b606091505b50600081511415611b59576040517f08c379a0000000000000000000000000000000000000000000000000000000008152600401611b509061246b565b60405180910390fd5b805181602001fd5b63150b7a0260e01b7bffffffffffffffffffffffffffffffffffffffffffffffffffffffff1916817bffffffffffffffffffffffffffffffffffffffffffffffffffffffff191614915050611bb6565b600190505b949350505050565b600080823b905060008111915050919050565b828054611bdd90612890565b90600052602060002090601f016020900481019282611bff5760008555611c46565b82601f10611c1857805160ff1916838001178555611c46565b82800160010185558215611c46579182015b82811115611c45578251825591602001919060010190611c2a565b5b509050611c539190611c57565b5090565b5b80821115611c70576000816000905550600101611c58565b5090565b6000611c87611c82846126ab565b612686565b905082815260208101848484011115611c9f57600080fd5b611caa84828561284e565b509392505050565b6000611cc5611cc0846126dc565b612686565b905082815260208101848484011115611cdd57600080fd5b611ce884828561284e565b509392505050565b600081359050611cff81612e3c565b92915050565b600081359050611d1481612e53565b92915050565b600081359050611d2981612e6a565b92915050565b600081519050611d3e81612e6a565b92915050565b600082601f830112611d5557600080fd5b8135611d65848260208601611c74565b91505092915050565b600082601f830112611d7f57600080fd5b8135611d8f848260208601611cb2565b91505092915050565b600081359050611da781612e81565b92915050565b600060208284031215611dbf57600080fd5b6000611dcd84828501611cf0565b91505092915050565b60008060408385031215611de957600080fd5b6000611df785828601611cf0565b9250506020611e0885828601611cf0565b9150509250929050565b600080600060608486031215611e2757600080fd5b6000611e3586828701611cf0565b9350506020611e4686828701611cf0565b9250506040611e5786828701611d98565b9150509250925092565b60008060008060808587031215611e7757600080fd5b6000611e8587828801611cf0565b9450506020611e9687828801611cf0565b9350506040611ea787828801611d98565b925050606085013567ffffffffffffffff811115611ec457600080fd5b611ed087828801611d44565b91505092959194509250565b60008060408385031215611eef57600080fd5b6000611efd85828601611cf0565b9250506020611f0e85828601611d05565b9150509250929050565b60008060408385031215611f2b57600080fd5b6000611f3985828601611cf0565b9250506020611f4a85828601611d98565b9150509250929050565b600060208284031215611f6657600080fd5b6000611f7484828501611d1a565b91505092915050565b600060208284031215611f8f57600080fd5b6000611f9d84828501611d2f565b91505092915050565b600060208284031215611fb857600080fd5b600082013567ffffffffffffffff811115611fd257600080fd5b611fde84828501611d6e565b91505092915050565b60008060408385031215611ffa57600080fd5b600083013567ffffffffffffffff81111561201457600080fd5b61202085828601611d6e565b925050602061203185828601611d98565b9150509250929050565b60006020828403121561204d57600080fd5b600061205b84828501611d98565b91505092915050565b61206d816127da565b82525050565b61207c816127ec565b82525050565b600061208d8261270d565b6120978185612723565b93506120a781856020860161285d565b6120b0816129d3565b840191505092915050565b60006120c682612718565b6120d08185612734565b93506120e081856020860161285d565b6120e9816129d3565b840191505092915050565b60006120ff82612718565b6121098185612745565b935061211981856020860161285d565b80840191505092915050565b6000612132603283612734565b915061213d826129e4565b604082019050919050565b6000612155601c83612734565b915061216082612a33565b602082019050919050565b6000612178602483612734565b915061218382612a5c565b604082019050919050565b600061219b601983612734565b91506121a682612aab565b602082019050919050565b60006121be602c83612734565b91506121c982612ad4565b604082019050919050565b60006121e1603883612734565b91506121ec82612b23565b604082019050919050565b6000612204602a83612734565b915061220f82612b72565b604082019050919050565b6000612227602983612734565b915061223282612bc1565b604082019050919050565b600061224a602083612734565b915061225582612c10565b602082019050919050565b600061226d602c83612734565b915061227882612c39565b604082019050919050565b6000612290602c83612734565b915061229b82612c88565b604082019050919050565b60006122b3602983612734565b91506122be82612cd7565b604082019050919050565b60006122d6602f83612734565b91506122e182612d26565b604082019050919050565b60006122f9602183612734565b915061230482612d75565b604082019050919050565b600061231c600b83612734565b915061232782612dc4565b602082019050919050565b600061233f603183612734565b915061234a82612ded565b604082019050919050565b61235e81612844565b82525050565b61237561237082612844565b61293c565b82525050565b600061238782856120f4565b915061239382846120f4565b91508190509392505050565b60006123ab82856120f4565b91506123b78284612364565b6020820191508190509392505050565b60006020820190506123dc6000830184612064565b92915050565b60006080820190506123f76000830187612064565b6124046020830186612064565b6124116040830185612355565b81810360608301526124238184612082565b905095945050505050565b60006020820190506124436000830184612073565b92915050565b6000602082019050818103600083015261246381846120bb565b905092915050565b6000602082019050818103600083015261248481612125565b9050919050565b600060208201905081810360008301526124a481612148565b9050919050565b600060208201905081810360008301526124c48161216b565b9050919050565b600060208201905081810360008301526124e48161218e565b9050919050565b60006020820190508181036000830152612504816121b1565b9050919050565b60006020820190508181036000830152612524816121d4565b9050919050565b60006020820190508181036000830152612544816121f7565b9050919050565b600060208201905081810360008301526125648161221a565b9050919050565b600060208201905081810360008301526125848161223d565b9050919050565b600060208201905081810360008301526125a481612260565b9050919050565b600060208201905081810360008301526125c481612283565b9050919050565b600060208201905081810360008301526125e4816122a6565b9050919050565b60006020820190508181036000830152612604816122c9565b9050919050565b60006020820190508181036000830152612624816122ec565b9050919050565b600060208201905081810360008301526126448161230f565b9050919050565b6000602082019050818103600083015261266481612332565b9050919050565b60006020820190506126806000830184612355565b92915050565b60006126906126a1565b905061269c82826128c2565b919050565b6000604051905090565b600067ffffffffffffffff8211156126c6576126c56129a4565b5b6126cf826129d3565b9050602081019050919050565b600067ffffffffffffffff8211156126f7576126f66129a4565b5b612700826129d3565b9050602081019050919050565b600081519050919050565b600081519050919050565b600082825260208201905092915050565b600082825260208201905092915050565b600081905092915050565b600061275b82612844565b915061276683612844565b9250827fffffffffffffffffffffffffffffffffffffffffffffffffffffffffffffffff0382111561279b5761279a612946565b5b828201905092915050565b60006127b182612844565b91506127bc83612844565b9250828210156127cf576127ce612946565b5b828203905092915050565b60006127e582612824565b9050919050565b60008115159050919050565b60007fffffffff0000000000000000000000000000000000000000000000000000000082169050919050565b600073ffffffffffffffffffffffffffffffffffffffff82169050919050565b6000819050919050565b82818337600083830152505050565b60005b8381101561287b578082015181840152602081019050612860565b8381111561288a576000848401525b50505050565b600060028204905060018216806128a857607f821691505b602082108114156128bc576128bb612975565b5b50919050565b6128cb826129d3565b810181811067ffffffffffffffff821117156128ea576128e96129a4565b5b80604052505050565b60006128fe82612844565b91507fffffffffffffffffffffffffffffffffffffffffffffffffffffffffffffffff82141561293157612930612946565b5b600182019050919050565b6000819050919050565b7f4e487b7100000000000000000000000000000000000000000000000000000000600052601160045260246000fd5b7f4e487b7100000000000000000000000000000000000000000000000000000000600052602260045260246000fd5b7f4e487b7100000000000000000000000000000000000000000000000000000000600052604160045260246000fd5b6000601f19601f8301169050919050565b7f4552433732313a207472616e7366657220746f206e6f6e20455243373231526560008201527f63656976657220696d706c656d656e7465720000000000000000000000000000602082015250565b7f4552433732313a20746f6b656e20616c7265616479206d696e74656400000000600082015250565b7f4552433732313a207472616e7366657220746f20746865207a65726f2061646460008201527f7265737300000000000000000000000000000000000000000000000000000000602082015250565b7f4552433732313a20617070726f766520746f2063616c6c657200000000000000600082015250565b7f4552433732313a206f70657261746f7220717565727920666f72206e6f6e657860008201527f697374656e7420746f6b656e0000000000000000000000000000000000000000602082015250565b7f4552433732313a20617070726f76652063616c6c6572206973206e6f74206f7760008201527f6e6572206e6f7220617070726f76656420666f7220616c6c0000000000000000602082015250565b7f4552433732313a2062616c616e636520717565727920666f7220746865207a6560008201527f726f206164647265737300000000000000000000000000000000000000000000602082015250565b7f4552433732313a206f776e657220717565727920666f72206e6f6e657869737460008201527f656e7420746f6b656e0000000000000000000000000000000000000000000000602082015250565b7f4552433732313a206d696e7420746f20746865207a65726f2061646472657373600082015250565b7f4552433732313a20617070726f76656420717565727920666f72206e6f6e657860008201527f697374656e7420746f6b656e0000000000000000000000000000000000000000602082015250565b7f4552433732314d657461646174613a2055524920736574206f66206e6f6e657860008201527f697374656e7420746f6b656e0000000000000000000000000000000000000000602082015250565b7f4552433732313a207472616e73666572206f6620746f6b656e2074686174206960008201527f73206e6f74206f776e0000000000000000000000000000000000000000000000602082015250565b7f4552433732314d657461646174613a2055524920717565727920666f72206e6f60008201527f6e6578697374656e7420746f6b656e0000000000000000000000000000000000602082015250565b7f4552433732313a20617070726f76616c20746f2063757272656e74206f776e6560008201527f7200000000000000000000000000000000000000000000000000000000000000602082015250565b7f4e4f204e46542048455245000000000000000000000000000000000000000000600082015250565b7f4552433732313a207472616e736665722063616c6c6572206973206e6f74206f60008201527f776e6572206e6f7220617070726f766564000000000000000000000000000000602082015250565b612e45816127da565b8114612e5057600080fd5b50565b612e5c816127ec565b8114612e6757600080fd5b50565b612e73816127f8565b8114612e7e57600080fd5b50565b612e8a81612844565b8114612e9557600080fd5b5056fea2646970667358221220aa886050ad60639f3f9b8384cf0f17c9ddb27886c37fca2ffffe980d11af6b4664736f6c63430008040033",
  "immutableReferences": {},
  "source": "pragma solidity ^0.8.0;\r\n\r\nimport \"@openzeppelin/contracts/token/ERC721/ERC721.sol\";\r\n\r\n\r\ncontract NFTToken is ERC721 {\r\n    \r\n    string public nameNFT;\r\n    string public nameSymbol;\r\n    string public nftTokenURI;\r\n    uint256 public nftId;\r\n    //Keep the record of  nfts\r\n    mapping(uint256 => string) public tokenURIExists;\r\n    \r\n    \r\n    //Keep the record for nfts value => give id returns cost \r\n    mapping(uint256 => uint256) public tokenIdToValue;\r\n    \r\n\r\n    \r\n    // Base URI\r\n    string  _baseURIextended;\r\n    \r\n    constructor () ERC721(\"Samresh\", \"SAM\") {\r\n        nameNFT = \"Samresh\";\r\n        nameSymbol = \"SAM\";\r\n    \r\n    }\r\n    \r\n    \r\n    \r\n    function setBaseURI(string memory baseURI_) external  {\r\n        _baseURIextended = baseURI_;\r\n    }\r\n    \r\n    \r\n    \r\n    function _setTokenURI(uint256 tokenId, string memory _tokenURI) internal virtual {\r\n        require( _exists(tokenId),\"ERC721Metadata: URI set of nonexistent token\");\r\n        tokenURIExists[tokenId] = _tokenURI;\r\n    }\r\n    \r\n    function _baseURI() internal view virtual override returns (string memory) {\r\n        return _baseURIextended;\r\n    }\r\n    \r\n    function tokenURI(uint256 tokenId) public view virtual override returns (string memory) {\r\n            require(_exists(tokenId), \"ERC721Metadata: URI query for nonexistent token\");\r\n\r\n            string memory _tokenURI = tokenURIExists[tokenId];\r\n            string memory base = _baseURI();\r\n            \r\n            // If there is no base URI, return the token URI.\r\n            if (bytes(base).length == 0) {\r\n                return _tokenURI;\r\n            }\r\n            // If both are set, concatenate the baseURI and tokenURI (via abi.encodePacked).\r\n            if (bytes(_tokenURI).length > 0) {\r\n                return string(abi.encodePacked(base, _tokenURI));\r\n            }\r\n            // // If there is a baseURI but no tokenURI, concatenate the tokenID to the baseURI.\r\n            // return string(abi.encodePacked(base, tokenId.toString()));\r\n            return string(abi.encodePacked(base, tokenId));\r\n    }\r\n        \r\n  \r\n    function Mint (string memory _tokenURI, uint256 _nftPrice) public returns (uint256)  {\r\n        require(msg.sender != address(0));\r\n        nftTokenURI = _tokenURI;\r\n        // used as token id \r\n        nftId ++;\r\n        // check if a token exists with the above token id => incremented counter\r\n        require(!_exists(nftId));\r\n        tokenIdToValue[nftId] = _nftPrice;\r\n        _mint(msg.sender,nftId);\r\n        _setTokenURI(nftId, nftTokenURI);\r\n        \r\n        return nftId;\r\n        \r\n    }\r\n    \r\n    function tokenPrice (uint256 _tokenID) external view returns (uint256 nftPrice) {\r\n        require(_exists(nftId),'NO NFT HERE');\r\n        nftPrice = tokenIdToValue[_tokenID]; \r\n        return nftPrice;\r\n    } \r\n    \r\n    \r\n}",
  "sourcePath": "S:\\TokenNFT\\contracts\\NFT.sol",
  "compiler": {
    "name": "solc",
    "version": "0.8.4+commit.c7e474f2.Emscripten.clang"
  },
  "schemaVersion": "3.4.3",
  "updatedAt": "2021-11-07T14:26:14.939Z",
  "networkType": "ethereum",
  "devdoc": {
    "kind": "dev",
    "methods": {
      "approve(address,uint256)": {
        "details": "See {IERC721-approve}."
      },
      "balanceOf(address)": {
        "details": "See {IERC721-balanceOf}."
      },
      "getApproved(uint256)": {
        "details": "See {IERC721-getApproved}."
      },
      "isApprovedForAll(address,address)": {
        "details": "See {IERC721-isApprovedForAll}."
      },
      "name()": {
        "details": "See {IERC721Metadata-name}."
      },
      "ownerOf(uint256)": {
        "details": "See {IERC721-ownerOf}."
      },
      "safeTransferFrom(address,address,uint256)": {
        "details": "See {IERC721-safeTransferFrom}."
      },
      "safeTransferFrom(address,address,uint256,bytes)": {
        "details": "See {IERC721-safeTransferFrom}."
      },
      "setApprovalForAll(address,bool)": {
        "details": "See {IERC721-setApprovalForAll}."
      },
      "supportsInterface(bytes4)": {
        "details": "See {IERC165-supportsInterface}."
      },
      "symbol()": {
        "details": "See {IERC721Metadata-symbol}."
      },
      "tokenURI(uint256)": {
        "details": "See {IERC721Metadata-tokenURI}."
      },
      "transferFrom(address,address,uint256)": {
        "details": "See {IERC721-transferFrom}."
      }
    },
    "version": 1
  },
  "userdoc": {
    "kind": "user",
    "methods": {},
    "version": 1
  }
}