{
  "contractName": "YourToken",
  "abi": [
    {
      "inputs": [],
      "stateMutability": "nonpayable",
      "type": "constructor"
    },
    {
      "anonymous": false,
      "inputs": [
        {
          "indexed": true,
          "internalType": "address",
          "name": "owner",
          "type": "address"
        },
        {
          "indexed": true,
          "internalType": "address",
          "name": "spender",
          "type": "address"
        },
        {
          "indexed": false,
          "internalType": "uint256",
          "name": "value",
          "type": "uint256"
        }
      ],
      "name": "Approval",
      "type": "event"
    },
    {
      "anonymous": false,
      "inputs": [
        {
          "indexed": true,
          "internalType": "address",
          "name": "from",
          "type": "address"
        },
        {
          "indexed": true,
          "internalType": "address",
          "name": "to",
          "type": "address"
        },
        {
          "indexed": false,
          "internalType": "uint256",
          "name": "value",
          "type": "uint256"
        }
      ],
      "name": "Transfer",
      "type": "event"
    },
    {
      "inputs": [
        {
          "internalType": "address",
          "name": "",
          "type": "address"
        }
      ],
      "name": "_balanceOf",
      "outputs": [
        {
          "internalType": "uint256",
          "name": "",
          "type": "uint256"
        }
      ],
      "stateMutability": "view",
      "type": "function"
    },
    {
      "inputs": [
        {
          "internalType": "address",
          "name": "owner",
          "type": "address"
        },
        {
          "internalType": "address",
          "name": "spender",
          "type": "address"
        }
      ],
      "name": "allowance",
      "outputs": [
        {
          "internalType": "uint256",
          "name": "",
          "type": "uint256"
        }
      ],
      "stateMutability": "view",
      "type": "function"
    },
    {
      "inputs": [
        {
          "internalType": "address",
          "name": "spender",
          "type": "address"
        },
        {
          "internalType": "uint256",
          "name": "amount",
          "type": "uint256"
        }
      ],
      "name": "approve",
      "outputs": [
        {
          "internalType": "bool",
          "name": "",
          "type": "bool"
        }
      ],
      "stateMutability": "nonpayable",
      "type": "function"
    },
    {
      "inputs": [
        {
          "internalType": "address",
          "name": "account",
          "type": "address"
        }
      ],
      "name": "balanceOf",
      "outputs": [
        {
          "internalType": "uint256",
          "name": "",
          "type": "uint256"
        }
      ],
      "stateMutability": "view",
      "type": "function"
    },
    {
      "inputs": [],
      "name": "decimals",
      "outputs": [
        {
          "internalType": "uint8",
          "name": "",
          "type": "uint8"
        }
      ],
      "stateMutability": "view",
      "type": "function"
    },
    {
      "inputs": [
        {
          "internalType": "address",
          "name": "spender",
          "type": "address"
        },
        {
          "internalType": "uint256",
          "name": "subtractedValue",
          "type": "uint256"
        }
      ],
      "name": "decreaseAllowance",
      "outputs": [
        {
          "internalType": "bool",
          "name": "",
          "type": "bool"
        }
      ],
      "stateMutability": "nonpayable",
      "type": "function"
    },
    {
      "inputs": [
        {
          "internalType": "address",
          "name": "spender",
          "type": "address"
        },
        {
          "internalType": "uint256",
          "name": "addedValue",
          "type": "uint256"
        }
      ],
      "name": "increaseAllowance",
      "outputs": [
        {
          "internalType": "bool",
          "name": "",
          "type": "bool"
        }
      ],
      "stateMutability": "nonpayable",
      "type": "function"
    },
    {
      "inputs": [],
      "name": "name",
      "outputs": [
        {
          "internalType": "string",
          "name": "",
          "type": "string"
        }
      ],
      "stateMutability": "view",
      "type": "function"
    },
    {
      "inputs": [],
      "name": "symbol",
      "outputs": [
        {
          "internalType": "string",
          "name": "",
          "type": "string"
        }
      ],
      "stateMutability": "view",
      "type": "function"
    },
    {
      "inputs": [],
      "name": "totalSupply",
      "outputs": [
        {
          "internalType": "uint256",
          "name": "",
          "type": "uint256"
        }
      ],
      "stateMutability": "view",
      "type": "function"
    },
    {
      "inputs": [
        {
          "internalType": "address",
          "name": "recipient",
          "type": "address"
        },
        {
          "internalType": "uint256",
          "name": "amount",
          "type": "uint256"
        }
      ],
      "name": "transfer",
      "outputs": [
        {
          "internalType": "bool",
          "name": "",
          "type": "bool"
        }
      ],
      "stateMutability": "nonpayable",
      "type": "function"
    },
    {
      "inputs": [
        {
          "internalType": "address",
          "name": "sender",
          "type": "address"
        },
        {
          "internalType": "address",
          "name": "recipient",
          "type": "address"
        },
        {
          "internalType": "uint256",
          "name": "amount",
          "type": "uint256"
        }
      ],
      "name": "transferFrom",
      "outputs": [
        {
          "internalType": "bool",
          "name": "",
          "type": "bool"
        }
      ],
      "stateMutability": "nonpayable",
      "type": "function"
    }
  ],
  "bytecode": "0x60806040523480156200001157600080fd5b506040518060400160405280600781526020017f536f6c756c6162000000000000000000000000000000000000000000000000008152506040518060400160405280600481526020017f534f4c550000000000000000000000000000000000000000000000000000000081525081600390805190602001906200009692919062000256565b508060049080519060200190620000af92919062000256565b505050620000cd33683635c9adc5dea00000620000d360201b60201c565b620004b2565b600073ffffffffffffffffffffffffffffffffffffffff168273ffffffffffffffffffffffffffffffffffffffff16141562000146576040517f08c379a00000000000000000000000000000000000000000000000000000000081526004016200013d906200033e565b60405180910390fd5b6200015a600083836200024c60201b60201c565b80600260008282546200016e91906200038e565b92505081905550806000808473ffffffffffffffffffffffffffffffffffffffff1673ffffffffffffffffffffffffffffffffffffffff1681526020019081526020016000206000828254620001c591906200038e565b925050819055508173ffffffffffffffffffffffffffffffffffffffff16600073ffffffffffffffffffffffffffffffffffffffff167fddf252ad1be2c89b69c2b068fc378daa952ba7f163c4a11628f55a4df523b3ef836040516200022c919062000360565b60405180910390a362000248600083836200025160201b60201c565b5050565b505050565b505050565b8280546200026490620003f5565b90600052602060002090601f016020900481019282620002885760008555620002d4565b82601f10620002a357805160ff1916838001178555620002d4565b82800160010185558215620002d4579182015b82811115620002d3578251825591602001919060010190620002b6565b5b509050620002e39190620002e7565b5090565b5b8082111562000302576000816000905550600101620002e8565b5090565b600062000315601f836200037d565b9150620003228262000489565b602082019050919050565b6200033881620003eb565b82525050565b60006020820190508181036000830152620003598162000306565b9050919050565b60006020820190506200037760008301846200032d565b92915050565b600082825260208201905092915050565b60006200039b82620003eb565b9150620003a883620003eb565b9250827fffffffffffffffffffffffffffffffffffffffffffffffffffffffffffffffff03821115620003e057620003df6200042b565b5b828201905092915050565b6000819050919050565b600060028204905060018216806200040e57607f821691505b602082108114156200042557620004246200045a565b5b50919050565b7f4e487b7100000000000000000000000000000000000000000000000000000000600052601160045260246000fd5b7f4e487b7100000000000000000000000000000000000000000000000000000000600052602260045260246000fd5b7f45524332303a206d696e7420746f20746865207a65726f206164647265737300600082015250565b6113e880620004c26000396000f3fe608060405234801561001057600080fd5b50600436106100b45760003560e01c806370a082311161007157806370a08231146101a357806395d89b41146101d3578063a457c2d7146101f1578063a9059cbb14610221578063cca3e83214610251578063dd62ed3e14610281576100b4565b806306fdde03146100b9578063095ea7b3146100d757806318160ddd1461010757806323b872dd14610125578063313ce567146101555780633950935114610173575b600080fd5b6100c16102b1565b6040516100ce9190610e88565b60405180910390f35b6100f160048036038101906100ec9190610cd6565b610343565b6040516100fe9190610e6d565b60405180910390f35b61010f610361565b60405161011c9190610f8a565b60405180910390f35b61013f600480360381019061013a9190610c87565b61036b565b60405161014c9190610e6d565b60405180910390f35b61015d610463565b60405161016a9190610fa5565b60405180910390f35b61018d60048036038101906101889190610cd6565b61046c565b60405161019a9190610e6d565b60405180910390f35b6101bd60048036038101906101b89190610c22565b610518565b6040516101ca9190610f8a565b60405180910390f35b6101db610560565b6040516101e89190610e88565b60405180910390f35b61020b60048036038101906102069190610cd6565b6105f2565b6040516102189190610e6d565b60405180910390f35b61023b60048036038101906102369190610cd6565b6106dd565b6040516102489190610e6d565b60405180910390f35b61026b60048036038101906102669190610c22565b6106fb565b6040516102789190610f8a565b60405180910390f35b61029b60048036038101906102969190610c4b565b610713565b6040516102a89190610f8a565b60405180910390f35b6060600380546102c0906110ba565b80601f01602080910402602001604051908101604052809291908181526020018280546102ec906110ba565b80156103395780601f1061030e57610100808354040283529160200191610339565b820191906000526020600020905b81548152906001019060200180831161031c57829003601f168201915b5050505050905090565b600061035761035061079a565b84846107a2565b6001905092915050565b6000600254905090565b600061037884848461096d565b6000600160008673ffffffffffffffffffffffffffffffffffffffff1673ffffffffffffffffffffffffffffffffffffffff16815260200190815260200160002060006103c361079a565b73ffffffffffffffffffffffffffffffffffffffff1673ffffffffffffffffffffffffffffffffffffffff16815260200190815260200160002054905082811015610443576040517f08c379a000000000000000000000000000000000000000000000000000000000815260040161043a90610f0a565b60405180910390fd5b6104578561044f61079a565b8584036107a2565b60019150509392505050565b60006012905090565b600061050e61047961079a565b84846001600061048761079a565b73ffffffffffffffffffffffffffffffffffffffff1673ffffffffffffffffffffffffffffffffffffffff16815260200190815260200160002060008873ffffffffffffffffffffffffffffffffffffffff1673ffffffffffffffffffffffffffffffffffffffff168152602001908152602001600020546105099190610fdc565b6107a2565b6001905092915050565b60008060008373ffffffffffffffffffffffffffffffffffffffff1673ffffffffffffffffffffffffffffffffffffffff168152602001908152602001600020549050919050565b60606004805461056f906110ba565b80601f016020809104026020016040519081016040528092919081815260200182805461059b906110ba565b80156105e85780601f106105bd576101008083540402835291602001916105e8565b820191906000526020600020905b8154815290600101906020018083116105cb57829003601f168201915b5050505050905090565b6000806001600061060161079a565b73ffffffffffffffffffffffffffffffffffffffff1673ffffffffffffffffffffffffffffffffffffffff16815260200190815260200160002060008573ffffffffffffffffffffffffffffffffffffffff1673ffffffffffffffffffffffffffffffffffffffff168152602001908152602001600020549050828110156106be576040517f08c379a00000000000000000000000000000000000000000000000000000000081526004016106b590610f6a565b60405180910390fd5b6106d26106c961079a565b858584036107a2565b600191505092915050565b60006106f16106ea61079a565b848461096d565b6001905092915050565b60056020528060005260406000206000915090505481565b6000600160008473ffffffffffffffffffffffffffffffffffffffff1673ffffffffffffffffffffffffffffffffffffffff16815260200190815260200160002060008373ffffffffffffffffffffffffffffffffffffffff1673ffffffffffffffffffffffffffffffffffffffff16815260200190815260200160002054905092915050565b600033905090565b600073ffffffffffffffffffffffffffffffffffffffff168373ffffffffffffffffffffffffffffffffffffffff161415610812576040517f08c379a000000000000000000000000000000000000000000000000000000000815260040161080990610f4a565b60405180910390fd5b600073ffffffffffffffffffffffffffffffffffffffff168273ffffffffffffffffffffffffffffffffffffffff161415610882576040517f08c379a000000000000000000000000000000000000000000000000000000000815260040161087990610eca565b60405180910390fd5b80600160008573ffffffffffffffffffffffffffffffffffffffff1673ffffffffffffffffffffffffffffffffffffffff16815260200190815260200160002060008473ffffffffffffffffffffffffffffffffffffffff1673ffffffffffffffffffffffffffffffffffffffff168152602001908152602001600020819055508173ffffffffffffffffffffffffffffffffffffffff168373ffffffffffffffffffffffffffffffffffffffff167f8c5be1e5ebec7d5bd14f71427d1e84f3dd0314c0f7b2291e5b200ac8c7c3b925836040516109609190610f8a565b60405180910390a3505050565b600073ffffffffffffffffffffffffffffffffffffffff168373ffffffffffffffffffffffffffffffffffffffff1614156109dd576040517f08c379a00000000000000000000000000000000000000000000000000000000081526004016109d490610f2a565b60405180910390fd5b600073ffffffffffffffffffffffffffffffffffffffff168273ffffffffffffffffffffffffffffffffffffffff161415610a4d576040517f08c379a0000000000000000000000000000000000000000000000000000000008152600401610a4490610eaa565b60405180910390fd5b610a58838383610bee565b60008060008573ffffffffffffffffffffffffffffffffffffffff1673ffffffffffffffffffffffffffffffffffffffff16815260200190815260200160002054905081811015610ade576040517f08c379a0000000000000000000000000000000000000000000000000000000008152600401610ad590610eea565b60405180910390fd5b8181036000808673ffffffffffffffffffffffffffffffffffffffff1673ffffffffffffffffffffffffffffffffffffffff16815260200190815260200160002081905550816000808573ffffffffffffffffffffffffffffffffffffffff1673ffffffffffffffffffffffffffffffffffffffff1681526020019081526020016000206000828254610b719190610fdc565b925050819055508273ffffffffffffffffffffffffffffffffffffffff168473ffffffffffffffffffffffffffffffffffffffff167fddf252ad1be2c89b69c2b068fc378daa952ba7f163c4a11628f55a4df523b3ef84604051610bd59190610f8a565b60405180910390a3610be8848484610bf3565b50505050565b505050565b505050565b600081359050610c0781611384565b92915050565b600081359050610c1c8161139b565b92915050565b600060208284031215610c3457600080fd5b6000610c4284828501610bf8565b91505092915050565b60008060408385031215610c5e57600080fd5b6000610c6c85828601610bf8565b9250506020610c7d85828601610bf8565b9150509250929050565b600080600060608486031215610c9c57600080fd5b6000610caa86828701610bf8565b9350506020610cbb86828701610bf8565b9250506040610ccc86828701610c0d565b9150509250925092565b60008060408385031215610ce957600080fd5b6000610cf785828601610bf8565b9250506020610d0885828601610c0d565b9150509250929050565b610d1b81611044565b82525050565b6000610d2c82610fc0565b610d368185610fcb565b9350610d46818560208601611087565b610d4f8161114a565b840191505092915050565b6000610d67602383610fcb565b9150610d728261115b565b604082019050919050565b6000610d8a602283610fcb565b9150610d95826111aa565b604082019050919050565b6000610dad602683610fcb565b9150610db8826111f9565b604082019050919050565b6000610dd0602883610fcb565b9150610ddb82611248565b604082019050919050565b6000610df3602583610fcb565b9150610dfe82611297565b604082019050919050565b6000610e16602483610fcb565b9150610e21826112e6565b604082019050919050565b6000610e39602583610fcb565b9150610e4482611335565b604082019050919050565b610e5881611070565b82525050565b610e678161107a565b82525050565b6000602082019050610e826000830184610d12565b92915050565b60006020820190508181036000830152610ea28184610d21565b905092915050565b60006020820190508181036000830152610ec381610d5a565b9050919050565b60006020820190508181036000830152610ee381610d7d565b9050919050565b60006020820190508181036000830152610f0381610da0565b9050919050565b60006020820190508181036000830152610f2381610dc3565b9050919050565b60006020820190508181036000830152610f4381610de6565b9050919050565b60006020820190508181036000830152610f6381610e09565b9050919050565b60006020820190508181036000830152610f8381610e2c565b9050919050565b6000602082019050610f9f6000830184610e4f565b92915050565b6000602082019050610fba6000830184610e5e565b92915050565b600081519050919050565b600082825260208201905092915050565b6000610fe782611070565b9150610ff283611070565b9250827fffffffffffffffffffffffffffffffffffffffffffffffffffffffffffffffff03821115611027576110266110ec565b5b828201905092915050565b600061103d82611050565b9050919050565b60008115159050919050565b600073ffffffffffffffffffffffffffffffffffffffff82169050919050565b6000819050919050565b600060ff82169050919050565b60005b838110156110a557808201518184015260208101905061108a565b838111156110b4576000848401525b50505050565b600060028204905060018216806110d257607f821691505b602082108114156110e6576110e561111b565b5b50919050565b7f4e487b7100000000000000000000000000000000000000000000000000000000600052601160045260246000fd5b7f4e487b7100000000000000000000000000000000000000000000000000000000600052602260045260246000fd5b6000601f19601f8301169050919050565b7f45524332303a207472616e7366657220746f20746865207a65726f206164647260008201527f6573730000000000000000000000000000000000000000000000000000000000602082015250565b7f45524332303a20617070726f766520746f20746865207a65726f20616464726560008201527f7373000000000000000000000000000000000000000000000000000000000000602082015250565b7f45524332303a207472616e7366657220616d6f756e742065786365656473206260008201527f616c616e63650000000000000000000000000000000000000000000000000000602082015250565b7f45524332303a207472616e7366657220616d6f756e742065786365656473206160008201527f6c6c6f77616e6365000000000000000000000000000000000000000000000000602082015250565b7f45524332303a207472616e736665722066726f6d20746865207a65726f20616460008201527f6472657373000000000000000000000000000000000000000000000000000000602082015250565b7f45524332303a20617070726f76652066726f6d20746865207a65726f2061646460008201527f7265737300000000000000000000000000000000000000000000000000000000602082015250565b7f45524332303a2064656372656173656420616c6c6f77616e63652062656c6f7760008201527f207a65726f000000000000000000000000000000000000000000000000000000602082015250565b61138d81611032565b811461139857600080fd5b50565b6113a481611070565b81146113af57600080fd5b5056fea2646970667358221220356c9740481f7d6b893567d67561553a28daea7f8784c456cc348f52a45fda6564736f6c63430008040033",
  "immutableReferences": {},
  "source": "\r\npragma solidity ^0.8.4;\r\nimport \"@openzeppelin/contracts/token/ERC20/ERC20.sol\";\r\n\r\n\r\ncontract YourToken is ERC20 {\r\n    \r\n    mapping (address => uint256) public  _balanceOf;\r\n    // I Account A approving Account B to spend amount N token\r\n    // mapping (address => mapping(address => uint256)) public  _allowance;\r\n    constructor() ERC20(\"Solulab\", \"SOLU\") {\r\n        _mint(msg.sender, 1000 * 10 ** 18);\r\n    }\r\n    \r\n  \r\n}",
  "sourcePath": "S:\\TokenNFT\\contracts\\Token.sol",
  "compiler": {
    "name": "solc",
    "version": "0.8.4+commit.c7e474f2.Emscripten.clang"
  },
  "schemaVersion": "3.4.3",
  "updatedAt": "2021-11-07T14:26:14.925Z",
  "networkType": "ethereum",
  "devdoc": {
    "kind": "dev",
    "methods": {
      "allowance(address,address)": {
        "details": "See {IERC20-allowance}."
      },
      "approve(address,uint256)": {
        "details": "See {IERC20-approve}. Requirements: - `spender` cannot be the zero address."
      },
      "balanceOf(address)": {
        "details": "See {IERC20-balanceOf}."
      },
      "decimals()": {
        "details": "Returns the number of decimals used to get its user representation. For example, if `decimals` equals `2`, a balance of `505` tokens should be displayed to a user as `5.05` (`505 / 10 ** 2`). Tokens usually opt for a value of 18, imitating the relationship between Ether and Wei. This is the value {ERC20} uses, unless this function is overridden; NOTE: This information is only used for _display_ purposes: it in no way affects any of the arithmetic of the contract, including {IERC20-balanceOf} and {IERC20-transfer}."
      },
      "decreaseAllowance(address,uint256)": {
        "details": "Atomically decreases the allowance granted to `spender` by the caller. This is an alternative to {approve} that can be used as a mitigation for problems described in {IERC20-approve}. Emits an {Approval} event indicating the updated allowance. Requirements: - `spender` cannot be the zero address. - `spender` must have allowance for the caller of at least `subtractedValue`."
      },
      "increaseAllowance(address,uint256)": {
        "details": "Atomically increases the allowance granted to `spender` by the caller. This is an alternative to {approve} that can be used as a mitigation for problems described in {IERC20-approve}. Emits an {Approval} event indicating the updated allowance. Requirements: - `spender` cannot be the zero address."
      },
      "name()": {
        "details": "Returns the name of the token."
      },
      "symbol()": {
        "details": "Returns the symbol of the token, usually a shorter version of the name."
      },
      "totalSupply()": {
        "details": "See {IERC20-totalSupply}."
      },
      "transfer(address,uint256)": {
        "details": "See {IERC20-transfer}. Requirements: - `recipient` cannot be the zero address. - the caller must have a balance of at least `amount`."
      },
      "transferFrom(address,address,uint256)": {
        "details": "See {IERC20-transferFrom}. Emits an {Approval} event indicating the updated allowance. This is not required by the EIP. See the note at the beginning of {ERC20}. Requirements: - `sender` and `recipient` cannot be the zero address. - `sender` must have a balance of at least `amount`. - the caller must have allowance for ``sender``'s tokens of at least `amount`."
      }
    },
    "version": 1
  },
  "userdoc": {
    "kind": "user",
    "methods": {},
    "version": 1
  }
}